:020000040000FA
:100000000C9462000C948A000C948A000C948A0070
:100010000C948A000C948A000C948A000C948A0038
:100020000C948A000C948A000C948A000C948A0028
:100030000C948A000C948A000C948A000C948A0018
:100040000C94C0040C948A000C948E040C946804E4
:100050000C948A000C948A000C948A000C948A00F8
:100060000C948A000C948A000000000024002700F1
:100070002A0000000000250028002B0000000008D6
:10008000000201000003040700000000000000005F
:1000900000000000230026002900040404040404D6
:1000A0000404020202020202030303030303010227
:1000B00004081020408001020408102001020408F6
:1000C00010204F0511241FBECFEFD8E0DEBFCDBFFB
:1000D00011E0A0E0B1E0EEEEF5E102C005900D9276
:1000E000AA39B107D9F722E0AAE9B1E001C01D920F
:1000F000AC35B207E1F710E0C2E6D0E004C02197CA
:10010000FE010E94EF0AC136D107C9F70E949A0585
:100110000C94F50A0C940000AF92BF92CF92DF923C
:10012000EF92FF920F931F93CF93DF936C017B01AC
:100130008B01040F151FEB015E01AE18BF08C0173D
:10014000D10759F06991D601ED91FC910190F081B0
:10015000E02DC6010995892B79F7C501DF91CF9173
:100160001F910F91FF90EF90DF90CF90BF90AF90D5
:100170000895FC01538D448D252F30E0842F90E0AD
:10018000821B930B541710F0CF9608950197089592
:10019000FC01918D828D981761F0A28DAE0FBF2F5B
:1001A000B11D5D968C91928D9F5F9F73928F90E0B1
:1001B00008958FEF9FEF0895FC01918D828D981720
:1001C00031F0828DE80FF11D858D90E008958FEF5D
:1001D0009FEF0895FC01918D228D892F90E0805C26
:1001E0009F4F821B91098F739927089587EA91E0A9
:1001F0000E94EA0021E0892B09F420E0822F089573
:1002000080E090E0892B29F00E94F60081110C9487
:1002100000000895FC01A48DA80FB92FB11DA35AA9
:10022000BF4F2C91848D90E001968F739927848F16
:10023000A689B7892C93A089B1898C918370806439
:100240008C93938D848D981306C00288F389E02DDA
:1002500080818F7D80830895EF92FF920F931F938B
:10026000CF93DF93EC0181E0888F9B8D8C8D981369
:100270001AC0E889F989808185FF15C09FB7F89475
:10028000EE89FF896083E889F989808183708064C1
:1002900080839FBF81E090E0DF91CF911F910F910C
:1002A000FF90EF900895F62E0B8D10E00F5F1F4F1B
:1002B0000F731127E02E8C8D8E110CC00FB607FC2A
:1002C000FACFE889F989808185FFF5CFCE010E94B8
:1002D0000A01F1CFEB8DEC0FFD2FF11DE35AFF4F1B
:1002E000F0829FB7F8940B8FEA89FB898081806246
:1002F000CFCFCF93DF93EC01888D8823B9F0AA8903
:10030000BB89E889F9898C9185FD03C0808186FDD0
:100310000DC00FB607FCF7CF8C9185FFF2CF80811F
:1003200085FFEDCFCE010E940A01E9CFDF91CF9189
:10033000089590E0FC01E458FF4F2491FC01E25540
:10034000FF4F3491FC01E656FF4FE491EE23C9F0D4
:10035000222339F0233001F1A8F4213019F12230A1
:1003600029F1F0E0EE0FFF1FEE58FF4FA591B49179
:100370008FB7F894EC91611126C030953E233C93E1
:100380008FBF08952730A9F02830C9F0243049F7ED
:10039000809180008F7D03C0809180008F77809353
:1003A0008000DFCF84B58F7784BDDBCF84B58F7DB0
:1003B000FBCF8091B0008F778093B000D2CF809137
:1003C000B0008F7DF9CF3E2BDACFCF93DF9390E053
:1003D000FC01E255FF4F249186569F4FFC0184910A
:1003E0008823D1F090E0880F991FFC01E859FF4F56
:1003F000A591B491FC01EE58FF4FC591D4916111C4
:100400000EC09FB7F8948C91E22FE0958E238C93C9
:100410002881E223E8839FBFDF91CF9108958FB7B2
:10042000F894EC91E22BEC938FBFF6CF8E50806462
:1004300080937C0080917A00806480937A00809120
:100440007A0086FDFCCF8091780090917900089524
:100450003FB7F89480919F019091A001A091A101D4
:10046000B091A20126B5A89B05C02F3F19F00196B7
:10047000A11DB11D3FBFBA2FA92F982F8827BC01FE
:10048000CD01620F711D811D911D42E0660F771F26
:10049000881F991F4A95D1F708958F929F92AF9226
:1004A000BF92CF92DF92EF92FF924B015C010E94CC
:1004B00028026B017C010E9428026C197D098E09BB
:1004C0009F09683E734081059105A8F321E0821AD7
:1004D0009108A108B10888EEC80E83E0D81EE11C7F
:1004E000F11C81149104A104B10429F7FF90EF904D
:1004F000DF90CF90BF90AF909F908F900895089518
:1005000090E080E00895CF93DF93EC0160E08E816E
:100510000E94990161E08E810E94990160E08E81C4
:100520000E9499018BE891E00197F1F7DF91CF915B
:100530000895CF92DF92EF92FF920F931F93CF9384
:10054000DF936C017C0187E0E80EF11CD0E0C0E095
:10055000062F10E0B8010C2E02C0759567950A941D
:10056000E2F76170F70181917F010E949901219664
:10057000C430D10579F7C601DF91CF911F910F915A
:10058000FF90EF90DF90CF900C948302CF92DF9298
:10059000EF92FF920F931F93CF93DF93EC01F62E10
:1005A000642F8C810E9499018D818F3F19F060E04A
:1005B0000E9499010F2D10E08F8584FF25C06E01E8
:1005C00087E0C80ED11CF12CE12CB8010E2C02C022
:1005D000759567950A94E2F76170F60181916F0154
:1005E0000E949901FFEFEF1AFF0A88E0E816F10474
:1005F00061F7CE01DF91CF911F910F91FF90EF90A6
:10060000DF90CF900C948302B80184E075956795D4
:100610008A95E1F7CE010E9499026F2DCE01DF91FC
:10062000CF911F910F91FF90EF90DF90CF900C949E
:10063000990240E0682F84E492E00C94C60281E0C5
:100640000E9419038BE39FE10197F1F70895CF937F
:10065000DF93613029F09091530298609093530298
:10066000609357021092580290E49093590280933D
:100670005A02805C80935B0261E0809148020E9494
:10068000E501809149028F3F19F061E00E94E50188
:1006900061E080914A020E94E501C4E4D2E09E013B
:1006A000245432408091530284FD0BC084E090E0DA
:1006B00021962817390744F461E08E810E94E501F4
:1006C000EECF88E090E0F4CF8BE39DE00197F1F767
:1006D00060E0809148020E94990160E080914A02A6
:1006E0000E949901809149028F3F19F060E00E94B9
:1006F00099018091530284FD34C063E084E492E068
:100700000E949902CBE4D6E4CE010197F1F763E0B1
:1007100084E492E00E9499022197F1F763E084E477
:1007200092E00E94990283E592E00197F1F762E07E
:1007300084E492E00E9499028091530280620E94B8
:10074000190384E0809354028CE00E9419030E94F4
:100750001F0382E08093550286E0DF91CF910C94D5
:10076000190380620E9419038BE496E40197F1F764
:100770008091530280620E94190383E592E0019701
:10078000F1F78091530280620E941903D5CF9091B6
:100790005702891710F08FEF890FE82FF0E0EC5B1C
:1007A000FD4F848980680C94190341E00E94C602C1
:1007B00081E090E00895FB0101900020E9F7319776
:1007C000AF01461B570BDC01ED91FC910280F381D8
:1007D000E02D09948F929F92AF92BF92EF92FF9279
:1007E0000F931F93CF93DF93CDB7DEB7A1970FB6CB
:1007F000F894DEBF0FBECDBF7C01FA01CB0119A278
:10080000223008F42AE08E010F5D1F4F822E912CBA
:10081000B12CA12CBF01A50194010E94E608F901A9
:10082000CA016A300CF5605DD8016E938D01232BEF
:10083000242B252B79F790E080E0109721F0BD0163
:10084000C7010E94DB03A1960FB6F894DEBF0FBE6E
:10085000CDBFDF91CF911F910F91FF90EF90BF908F
:10086000AF909F908F900895695CDECFCF92DF921A
:10087000EF92FF926C01990FEE08FF08F7FE18C087
:1008800041E06DE284E492E00E94C60244275527CD
:10089000BA014C195D096E097F092AE084E492E0EF
:1008A0000E94EA030196FF90EF90DF90CF900895A9
:1008B0002AE0B701A60184E492E0FF90EF90DF9078
:1008C000CF900C94EA03BC0184E492E00C94DB0327
:1008D0001F920F920FB60F9211242F933F934F93B5
:1008E0005F936F937F938F939F93AF93BF93EF9398
:1008F000FF9387EA91E00E940A01FF91EF91BF9177
:10090000AF919F918F917F916F915F914F913F91A7
:100910002F910F900FBE0F901F9018951F920F925E
:100920000FB60F9211242F938F939F93EF93FF9302
:10093000E091B701F091B8018081E091BD01F091A3
:10094000BE0182FD1BC090818091C0018F5F8F73BB
:100950002091C101821741F0E091C001F0E0E9551A
:10096000FE4F958F8093C001FF91EF919F918F91E2
:100970002F910F900FBE0F901F9018958081F4CF8C
:100980001F920F920FB60F9211242F933F938F93C4
:100990009F93AF93BF9380919B0190919C01A091F5
:1009A0009D01B0919E0130919A0123E0230F2D37D4
:1009B00058F50196A11DB11D20939A0180939B01CA
:1009C00090939C01A0939D01B0939E0180919F0103
:1009D0009091A001A091A101B091A2010196A11D49
:1009E000B11D80939F019093A001A093A101B093AA
:1009F000A201BF91AF919F918F913F912F910F9045
:100A00000FBE0F901F90189526E8230F0296A11D88
:100A1000B11DD2CFCF92DF92EF92FF920F931F932F
:100A2000E82FF92F05C0015011092109310961F1A1
:100A3000908196239417B9F305C00150110921093B
:100A4000310911F1908196239413F7CFC12CD12C49
:100A5000E12CF12C0AC08FEFC81AD80AE80AF80A6C
:100A60000C151D052E053F0579F08081862384171E
:100A700091F36C2D7D2D8E2D9F2D1F910F91FF9049
:100A8000EF90DF90CF90089560E070E080E090E01C
:100A90001F910F91FF90EF90DF90CF900895E7EABC
:100AA000F1E01382128288EE93E0A0E0B0E084834C
:100AB0009583A683B78384E091E09183808385EC5E
:100AC00090E09587848784EC90E09787868780EC18
:100AD00090E0918B808B81EC90E0938B828B82EC09
:100AE00090E0958B848B86EC90E0978B868B118EB3
:100AF000128E138E148EE4E4F2E01382128286E1E9
:100B000091E0918380838CE084838FEF85838BE0F9
:100B1000868388E0878387E0808786E0818785E019
:100B200082871386148615861686178661E080E113
:100B30000C942703789484B5826084BD84B5816069
:100B400084BD85B5826085BD85B5816085BD809198
:100B50006E00816080936E00109281008091810010
:100B60008260809381008091810081608093810008
:100B7000809180008160809380008091B1008460CA
:100B80008093B1008091B00081608093B00080912B
:100B90007A00846080937A0080917A0082608093EA
:100BA0007A0080917A00816080937A0080917A0047
:100BB000806880937A001092C10064E084E10E9412
:100BC0002703E091B701F091B80182E08083E091C2
:100BD000B301F091B4011082E091B501F091B6013A
:100BE0008FEC80831092BF01E091BB01F091BC01BA
:100BF00086E08083E091B901F091BA018081806143
:100C00008083E091B901F091BA018081886080838E
:100C1000E091B901F091BA01808180688083E09110
:100C2000B901F091BA0180818F7D808360E089E015
:100C30000E94E50160E08EE00E94E50161E08AE04B
:100C40000E94E50160E08AE00E94990161E08DE088
:100C50000E94E50161E084E00E94E50160E08DE032
:100C60000E94990160E084E00E94990180E00E9466
:100C7000C7038EE191E00E94630481E00E94C703F4
:100C800083E391E00E94630482E00E94C7038AE349
:100C900091E00E94630468EB7BE080E090E00E94BA
:100CA0004D020E941F0380E00E94C70387E491E089
:100CB0000E94630468EE73E080E090E00E944D02C1
:100CC0000E941F0393E2292E312CC0E0D0E060E0A7
:100CD0008AE00E94990183E090E00197F1F761E0DA
:100CE0008AE00E949901C1010197F1F760E08AE072
:100CF0000E949901E7EBF0E06491E3EAF0E084916F
:100D0000E82FF0E0EE0FFF1FE057FF4F8591949121
:100D100000E412E42FE030E0462F0E940A0561153E
:100D200071058105910529F06F5F7F4F8F4F9F4FB0
:100D30009F700E94C10926E933E44BE85CE30E94FE
:100D4000760A0E948909DB0124E630E00E94E80A65
:100D50002FEF33E040E050E00E94C7083093A60137
:100D60002093A5018EE00E94160224E630E0DC010B
:100D70000E94E80A2FEF33E040E050E00E94C708ED
:100D80003093A4012093A3018FE00E941602BC01BE
:100D9000990F880B990B0E94C10920E030E040EACE
:100DA00050E40E94760A20E030E048EC52E40E94D1
:100DB000760A20E030E040E85AE30E94760A6B01B0
:100DC0007C014B015C01AC019B010E94E30A6FE4D2
:100DD00071E081111BC026013701E89477F82FEFED
:100DE0003FEF4FE75FE7C301B2010E94E30A8111C1
:100DF0006DC02FEF3FEF4FE75FE7C301B2010E94E5
:100E0000840918160CF062C063E571E087EA91E08E
:100E10000E94DB036BE571E087EA91E00E94DB034F
:100E200068EE73E080E090E00E944D022091A50101
:100E30003091A6018091A3019091A4012333310543
:100E40000CF4C8C0863491050CF0C0C00E941F038A
:100E500080E00E94C7038EE591E00E9463048091C8
:100E6000A5019091A6010E9436048BE691E00E94B4
:100E7000630481E00E94C7038DE691E00E94630451
:100E80008091A3019091A4010E9436048BE691E029
:100E90000E94630482E00E94C7038FE791E00E94F2
:100EA000630480E391E00E94630483E00E94C7032F
:100EB0008BE891E00E94630486E991E00E9463045C
:100EC00060E084E00E94990161E0C7C02FEF3FEF2E
:100ED0004FE75FE4C701B6010E94710A18161CF4BF
:100EE00067E571E093CF2FEF3FEF4FE75FECC7016E
:100EF000B6010E94840987FDF3CF20E030E0A9010C
:100F0000C701B6010E94840987FF0BC06DE287EA22
:100F100091E00E942C0146015701B7FAB094B7F84E
:100F2000B0942AE037ED43EA5BE3C501B4010E94C7
:100F300018094B015C010E9490096B017C010E9421
:100F4000BF099B01AC01C501B4010E9417094B0107
:100F50005C012AE0B701A60187EA91E00E94EA035A
:100F60006EE287EA91E00E942C0120E030E040E24E
:100F700051E4C501B4010E94760A4B015C010E9454
:100F800090096B01F12CE12C2AE0B701A60187EA58
:100F900091E00E94EA03C701B6010E94BF099B01CC
:100FA000AC01C501B4010E94170920E030E040E225
:100FB00051E40E94760A0E949009AB0170E060E063
:100FC0002AE087EA91E00E94EA0324CF2134310528
:100FD0000CF057C0863591050CF495C00E941F0394
:100FE00080E00E94C7038EE591E00E946304809137
:100FF000A5019091A6010E9436048BE691E00E9423
:10100000630481E00E94C7038DE691E00E946304BF
:101010008091A3019091A4010E9436048BE691E097
:101020000E94630482E00E94C7038FE791E00E9460
:10103000630486E991E00E94630483E00E94C70391
:101040008BE891E00E94630480E391E00E946304D6
:1010500061E084E00E94990160E08DE00E949901C6
:1010600068EE73E080E090E00E944D02209709F462
:101070002ECE0E94F600882309F429CE0E9400009B
:1010800026CE2134310591F3863591057CF30E94FB
:101090001F0380E00E94C7038EE591E00E94630475
:1010A0008091A5019091A6010E9436048BE691E003
:1010B0000E94630481E00E94C7038DE691E00E94D4
:1010C00063048091A3019091A4010E9436048BE6F1
:1010D00091E00E94630482E00E94C7038FE791E0E1
:1010E0000E94630486E991E00E94630483E00E9409
:1010F000C7038BE891E00E94630486E991E00E94B7
:10110000630460E0A6CF213431050CF0AFCF853504
:10111000910509F4ABCF0E941F0380E00E94C70332
:101120008EE591E00E9463048091A5019091A60153
:101130000E9436048BE691E00E94630481E00E94E5
:10114000C7038DE691E00E9463048091A301909112
:10115000A4010E9436048BE691E00E94630482E0C1
:101160000E94C7038FE791E00E94630480E391E04F
:101170000E94630483E00E94C7038BE891E00E9411
:10118000630480E391E00E94630461E09ACE052E3F
:1011900097FB1EF400940E94DE0857FD07D00E94C2
:1011A000E60807FC03D04EF40C94DE0850954095F9
:1011B000309521953F4F4F4F5F4F08959095809503
:1011C000709561957F4F8F4F9F4F0895A1E21A2E22
:1011D000AA1BBB1BFD010DC0AA1FBB1FEE1FFF1FDB
:1011E000A217B307E407F50720F0A21BB30BE40B2B
:1011F000F50B661F771F881F991F1A9469F7609572
:101200007095809590959B01AC01BD01CF0108952B
:10121000A29FB001B39FC001A39F700D811D112437
:10122000911DB29F700D811D1124911D089550587C
:10123000BB27AA270E942F090C94370A0E94290A6B
:1012400038F00E94300A20F039F49F3F19F426F458
:101250000C94260A0EF4E095E7FB0C94200AE92F83
:101260000E94480A58F3BA17620773078407950764
:1012700020F079F4A6F50C946A0A0EF4E0950B2E92
:10128000BA2FA02D0B01B90190010C01CA01A001D8
:101290001124FF27591B99F0593F50F4503E68F133
:1012A0001A16F040A22F232F342F4427585FF3CF74
:1012B000469537952795A795F0405395C9F77EF445
:1012C0001F16BA0B620B730B840BBAF09150A1F08E
:1012D000FF0FBB1F661F771F881FC2F70EC0BA0F14
:1012E000621F731F841F48F4879577956795B7959C
:1012F000F7959E3F08F0B0CF9395880F08F0992797
:10130000EE0F9795879508950E94FC0908F481E0F7
:1013100008950E9490096894B1110C946B0A089585
:101320000E94500A88F09F5798F0B92F9927B7511B
:10133000B0F0E1F0660F771F881F991F1AF0BA9579
:10134000C9F714C0B13091F00E946A0AB1E0089563
:101350000C946A0A672F782F8827B85F39F0B93F55
:10136000CCF3869577956795B395D9F73EF490952C
:101370008095709561957F4F8F4F9F4F0895E894AA
:1013800009C097FB3EF490958095709561957F4FCD
:101390008F4F9F4F9923A9F0F92F96E9BB2793957B
:1013A000F695879577956795B795F111F8CFFAF48B
:1013B000BB0F11F460FF1BC06F5F7F4F8F4F9F4FBC
:1013C00016C0882311F096E911C0772321F09EE81A
:1013D000872F762F05C0662371F096E8862F70E080
:1013E00060E02AF09A95660F771F881FDAF7880F5A
:1013F0009695879597F90895990F0008550FAA0BB0
:10140000E0E8FEEF16161706E807F907C0F0121617
:101410001306E407F50798F0621B730B840B950B1A
:1014200039F40A2661F0232B242B252B21F408956F
:101430000A2609F4A140A6958FEF811D811D08950C
:1014400097F99F6780E870E060E008959FEF80EC77
:10145000089500240A94161617061806090608951A
:1014600000240A9412161306140605060895092E80
:101470000394000C11F4882352F0BB0F40F4BF2BEF
:1014800011F460FF04C06F5F7F4F8F4F9F4F08952F
:1014900057FD9058440F551F59F05F3F71F0479525
:1014A000880F97FB991F61F09F3F79F0879508950A
:1014B000121613061406551FF2CF4695F1DF08C029
:1014C000161617061806991FF1CF86957105610546
:1014D00008940895E894BB2766277727CB0197F9EE
:1014E00008950E94FC0908F48FEF08950E94890A6C
:1014F0000C94370A0E94290A38F00E94300A20F022
:10150000952311F00C94200A0C94260A11240C94B3
:101510006B0A0E94480A70F3959FC1F3950F50E043
:10152000551F629FF001729FBB27F00DB11D639F95
:10153000AA27F00DB11DAA1F649F6627B00DA11D3B
:10154000661F829F2227B00DA11D621F739FB00DE1
:10155000A11D621F839FA00D611D221F749F332751
:10156000A00D611D231F849F600D211D822F762FEA
:101570006A2F11249F5750409AF0F1F088234AF0C7
:10158000EE0FFF1FBB1F661F771F881F9150504033
:10159000A9F79E3F510580F00C94200A0C946B0A29
:1015A0005F3FE4F3983ED4F3869577956795B795BA
:1015B000F795E7959F5FC1F7FE2B880F911D9695D4
:1015C000879597F908950E94FC09880B990B089557
:1015D0000E940809B7FF0895821B930B0895EE0F30
:1015E000FF1F0590F491E02D0994F894FFCF0000BF
:1015F00000002C018C00B9007901EA00C800DC0071
:1016000000000000D5038C0080027F024155544F3A
:101610004D415445442049525249474154494F4E47
:101620000053595354454D0042592D423130204703
:10163000524F55500057454C434F4D45006E616E1B
:1016400000696E66006F7666000D0A0054414E4BCD
:10165000204C4556454C3D200025004D4F495354E4
:10166000555245205354415455533D200057415441
:1016700045522050554D503A0054414E4B20505544
:081680004D503A004F464600B0
:107E0000112484B714BE81FFF0D085E080938100F7
:107E100082E08093C00088E18093C10086E0809377
:107E2000C20080E18093C4008EE0C9D0259A86E02C
:107E300020E33CEF91E0309385002093840096BBD3
:107E4000B09BFECF1D9AA8958150A9F7CC24DD24C4
:107E500088248394B5E0AB2EA1E19A2EF3E0BF2EE7
:107E6000A2D0813461F49FD0082FAFD0023811F036
:107E7000013811F484E001C083E08DD089C08234E0
:107E800011F484E103C0853419F485E0A6D080C0E4
:107E9000853579F488D0E82EFF2485D0082F10E0AE
:107EA000102F00270E291F29000F111F8ED06801E7
:107EB0006FC0863521F484E090D080E0DECF843638
:107EC00009F040C070D06FD0082F6DD080E0C81688
:107ED00080E7D80618F4F601B7BEE895C0E0D1E017
:107EE00062D089930C17E1F7F0E0CF16F0E7DF06D8
:107EF00018F0F601B7BEE89568D007B600FCFDCFD4
:107F0000A601A0E0B1E02C9130E011968C91119780
:107F100090E0982F8827822B932B1296FA010C0160
:107F200087BEE89511244E5F5F4FF1E0A038BF0790
:107F300051F7F601A7BEE89507B600FCFDCF97BE46
:107F4000E89526C08437B1F42ED02DD0F82E2BD052
:107F50003CD0F601EF2C8F010F5F1F4F84911BD097
:107F6000EA94F801C1F70894C11CD11CFA94CF0C13
:107F7000D11C0EC0853739F428D08EE10CD085E9AC
:107F80000AD08FE07ACF813511F488E018D01DD067
:107F900080E101D065CF982F8091C00085FFFCCF94
:107FA0009093C60008958091C00087FFFCCF809118
:107FB000C00084FD01C0A8958091C6000895E0E648
:107FC000F0E098E1908380830895EDDF803219F02E
:107FD00088E0F5DFFFCF84E1DECF1F93182FE3DFCA
:107FE0001150E9F7F2DF1F91089580E0E8DFEE27F6
:047FF000FF270994CA
:027FFE00040479
:00000001FF
